{
  "contractName": "MetaCoin",
  "abi": [
    {
      "constant": true,
      "inputs": [
        {
          "name": "",
          "type": "address"
        }
      ],
      "name": "balances",
      "outputs": [
        {
          "name": "redCoin",
          "type": "uint256"
        },
        {
          "name": "greenCoin",
          "type": "uint256"
        }
      ],
      "payable": false,
      "stateMutability": "view",
      "type": "function"
    },
    {
      "constant": true,
      "inputs": [],
      "name": "myString",
      "outputs": [
        {
          "name": "",
          "type": "string"
        }
      ],
      "payable": false,
      "stateMutability": "view",
      "type": "function"
    },
    {
      "constant": false,
      "inputs": [
        {
          "name": "x",
          "type": "string"
        }
      ],
      "name": "set",
      "outputs": [],
      "payable": false,
      "stateMutability": "nonpayable",
      "type": "function"
    },
    {
      "constant": false,
      "inputs": [],
      "name": "metaCoin",
      "outputs": [],
      "payable": false,
      "stateMutability": "nonpayable",
      "type": "function"
    },
    {
      "constant": true,
      "inputs": [],
      "name": "getRedCoin",
      "outputs": [
        {
          "name": "balance",
          "type": "uint256"
        }
      ],
      "payable": false,
      "stateMutability": "view",
      "type": "function"
    },
    {
      "constant": true,
      "inputs": [],
      "name": "getGreenCoin",
      "outputs": [
        {
          "name": "balance",
          "type": "uint256"
        }
      ],
      "payable": false,
      "stateMutability": "view",
      "type": "function"
    },
    {
      "constant": false,
      "inputs": [
        {
          "name": "receiver",
          "type": "address"
        },
        {
          "name": "amount",
          "type": "uint256"
        }
      ],
      "name": "sendRed",
      "outputs": [
        {
          "name": "successful",
          "type": "bool"
        }
      ],
      "payable": false,
      "stateMutability": "nonpayable",
      "type": "function"
    },
    {
      "constant": false,
      "inputs": [
        {
          "name": "receiver",
          "type": "address"
        },
        {
          "name": "amount",
          "type": "uint256"
        }
      ],
      "name": "sendGreen",
      "outputs": [
        {
          "name": "successful",
          "type": "bool"
        }
      ],
      "payable": false,
      "stateMutability": "nonpayable",
      "type": "function"
    }
  ],
  "bytecode": "0x60806040526040518060400160405280600b81526020017f48656c6c6f20576f726c640000000000000000000000000000000000000000008152506000908051906020019061004f929190610062565b5034801561005c57600080fd5b50610107565b828054600181600116156101000203166002900490600052602060002090601f016020900481019282601f106100a357805160ff19168380011785556100d1565b828001600101855582156100d1579182015b828111156100d05782518255916020019190600101906100b5565b5b5090506100de91906100e2565b5090565b61010491905b808211156101005760008160009055506001016100e8565b5090565b90565b610811806101166000396000f3fe608060405234801561001057600080fd5b50600436106100885760003560e01c80634ed3885e1161005b5780634ed3885e146101df5780637144809d1461029a57806381a5b9af146102b8578063e9b764b31461031e57610088565b8063076b46d81461008d57806327e235e3146100f3578063492bfa18146101525780634e3b52fe146101d5575b600080fd5b6100d9600480360360408110156100a357600080fd5b81019080803573ffffffffffffffffffffffffffffffffffffffff1690602001909291908035906020019092919050505061033c565b604051808215151515815260200191505060405180910390f35b6101356004803603602081101561010957600080fd5b81019080803573ffffffffffffffffffffffffffffffffffffffff16906020019092919050505061043c565b604051808381526020018281526020019250505060405180910390f35b61015a610460565b6040518080602001828103825283818151815260200191508051906020019080838360005b8381101561019a57808201518184015260208101905061017f565b50505050905090810190601f1680156101c75780820380516001836020036101000a031916815260200191505b509250505060405180910390f35b6101dd6104fe565b005b610298600480360360208110156101f557600080fd5b810190808035906020019064010000000081111561021257600080fd5b82018360208201111561022457600080fd5b8035906020019184600183028401116401000000008311171561024657600080fd5b91908080601f016020809104026020016040519081016040528093929190818152602001838380828437600081840152601f19601f820116905080830192505050505050509192919290505050610592565b005b6102a26105ac565b6040518082815260200191505060405180910390f35b610304600480360360408110156102ce57600080fd5b81019080803573ffffffffffffffffffffffffffffffffffffffff169060200190929190803590602001909291905050506105f6565b604051808215151515815260200191505060405180910390f35b6103266106f6565b6040518082815260200191505060405180910390f35b600081600160003373ffffffffffffffffffffffffffffffffffffffff1673ffffffffffffffffffffffffffffffffffffffff1681526020019081526020016000206001015410156103915760009050610436565b81600160003373ffffffffffffffffffffffffffffffffffffffff1673ffffffffffffffffffffffffffffffffffffffff1681526020019081526020016000206001016000828254039250508190555081600160008573ffffffffffffffffffffffffffffffffffffffff1673ffffffffffffffffffffffffffffffffffffffff16815260200190815260200160002060010160008282540192505081905550600190505b92915050565b60016020528060005260406000206000915090508060000154908060010154905082565b60008054600181600116156101000203166002900480601f0160208091040260200160405190810160405280929190818152602001828054600181600116156101000203166002900480156104f65780601f106104cb576101008083540402835291602001916104f6565b820191906000526020600020905b8154815290600101906020018083116104d957829003601f168201915b505050505081565b612710600160003373ffffffffffffffffffffffffffffffffffffffff1673ffffffffffffffffffffffffffffffffffffffff16815260200190815260200160002060000181905550611388600160003373ffffffffffffffffffffffffffffffffffffffff1673ffffffffffffffffffffffffffffffffffffffff16815260200190815260200160002060010181905550565b80600090805190602001906105a8929190610740565b5050565b6000600160003373ffffffffffffffffffffffffffffffffffffffff1673ffffffffffffffffffffffffffffffffffffffff16815260200190815260200160002060000154905090565b600081600160003373ffffffffffffffffffffffffffffffffffffffff1673ffffffffffffffffffffffffffffffffffffffff16815260200190815260200160002060000154101561064b57600090506106f0565b81600160003373ffffffffffffffffffffffffffffffffffffffff1673ffffffffffffffffffffffffffffffffffffffff1681526020019081526020016000206000016000828254039250508190555081600160008573ffffffffffffffffffffffffffffffffffffffff1673ffffffffffffffffffffffffffffffffffffffff16815260200190815260200160002060000160008282540192505081905550600190505b92915050565b6000600160003373ffffffffffffffffffffffffffffffffffffffff1673ffffffffffffffffffffffffffffffffffffffff16815260200190815260200160002060010154905090565b828054600181600116156101000203166002900490600052602060002090601f016020900481019282601f1061078157805160ff19168380011785556107af565b828001600101855582156107af579182015b828111156107ae578251825591602001919060010190610793565b5b5090506107bc91906107c0565b5090565b6107e291905b808211156107de5760008160009055506001016107c6565b5090565b9056fea165627a7a72305820f0e3e1e7bcf1480116ca580a1fcecfc9f16901c8214728c06e615714ec4f1b770029",
  "source": "pragma solidity >=0.4.21 <0.6.0;\r\n\r\ncontract MetaCoin {\r\n    string public myString = \"Hello World\";\r\n\r\n    function set(string memory x) public {\r\n        myString = x;\r\n    }\r\n\r\n\tstruct coinWallet {\r\n        uint redCoin;\r\n        uint greenCoin;\r\n\t}\r\n\tmapping (address => coinWallet) public balances;\r\n\r\n\tfunction metaCoin() public {\r\n\t\tbalances[msg.sender].redCoin = 10000;\r\n\t\tbalances[msg.sender].greenCoin = 5000;\r\n\t}\r\n\r\n\tfunction getRedCoin() public view returns (uint balance) {\r\n\t\treturn balances[msg.sender].redCoin;\r\n\t}\r\n\r\n\tfunction getGreenCoin() public view returns (uint balance) {\r\n\t\treturn balances[msg.sender].greenCoin;\r\n\t}\r\n\r\n\tfunction sendRed(address receiver, uint amount) public returns(bool successful) {\r\n\t\tif (balances[msg.sender].redCoin < amount) return false;\r\n\t\tbalances[msg.sender].redCoin -= amount;\r\n\t\tbalances[receiver].redCoin += amount;\r\n\t\treturn true;\r\n\t}\r\n\r\n\tfunction sendGreen(address receiver, uint amount) public returns(bool successful) {\r\n\t\tif (balances[msg.sender].greenCoin < amount) return false;\r\n\t\tbalances[msg.sender].greenCoin -= amount;\r\n\t\tbalances[receiver].greenCoin += amount;\r\n\t\treturn true;\r\n\t}\r\n}",
  "sourcePath": "D:/ws.blockchain/drizzle-react/contracts/MetaCoin.sol",
  "compiler": {
    "name": "solc",
    "version": "0.5.8+commit.23d335f2.Emscripten.clang"
  },
  "schemaVersion": "3.0.11",
  "updatedAt": "2019-06-19T12:37:10.908Z",
  "devdoc": {
    "methods": {}
  },
  "userdoc": {
    "methods": {}
  }
}